{"abi":[{"type":"function","name":"main","inputs":[{"name":"webProof","type":"tuple","internalType":"struct WebProof","components":[{"name":"webProofJson","type":"string","internalType":"string"}]}],"outputs":[{"name":"","type":"tuple","internalType":"struct Proof","components":[{"name":"seal","type":"tuple","internalType":"struct Seal","components":[{"name":"verifierSelector","type":"bytes4","internalType":"bytes4"},{"name":"seal","type":"bytes32[8]","internalType":"bytes32[8]"},{"name":"mode","type":"uint8","internalType":"enum ProofMode"}]},{"name":"callGuestId","type":"bytes32","internalType":"bytes32"},{"name":"length","type":"uint256","internalType":"uint256"},{"name":"callAssumptions","type":"tuple","internalType":"struct CallAssumptions","components":[{"name":"proverContractAddress","type":"address","internalType":"address"},{"name":"functionSelector","type":"bytes4","internalType":"bytes4"},{"name":"settleBlockNumber","type":"uint256","internalType":"uint256"},{"name":"settleBlockHash","type":"bytes32","internalType":"bytes32"}]}]}],"stateMutability":"view"},{"type":"function","name":"proof","inputs":[],"outputs":[{"name":"","type":"tuple","internalType":"struct Proof","components":[{"name":"seal","type":"tuple","internalType":"struct Seal","components":[{"name":"verifierSelector","type":"bytes4","internalType":"bytes4"},{"name":"seal","type":"bytes32[8]","internalType":"bytes32[8]"},{"name":"mode","type":"uint8","internalType":"enum ProofMode"}]},{"name":"callGuestId","type":"bytes32","internalType":"bytes32"},{"name":"length","type":"uint256","internalType":"uint256"},{"name":"callAssumptions","type":"tuple","internalType":"struct CallAssumptions","components":[{"name":"proverContractAddress","type":"address","internalType":"address"},{"name":"functionSelector","type":"bytes4","internalType":"bytes4"},{"name":"settleBlockNumber","type":"uint256","internalType":"uint256"},{"name":"settleBlockHash","type":"bytes32","internalType":"bytes32"}]}]}],"stateMutability":"pure"},{"type":"function","name":"setBlock","inputs":[{"name":"blockNo","type":"uint256","internalType":"uint256"}],"outputs":[],"stateMutability":"nonpayable"},{"type":"function","name":"setChain","inputs":[{"name":"chainId","type":"uint256","internalType":"uint256"},{"name":"blockNo","type":"uint256","internalType":"uint256"}],"outputs":[],"stateMutability":"nonpayable"},{"type":"error","name":"FailedInnerCall","inputs":[]}],"bytecode":{"object":"0x6080604052348015600e575f80fd5b506118fe8061001c5f395ff3fe608060405234801561000f575f80fd5b506004361061004a575f3560e01c806387cea3ae1461004e578063efedf8101461006a578063faf924cf1461009a578063ffbc5638146100b8575b5f80fd5b61006860048036038101906100639190610b6b565b6100d4565b005b610084600480360381019061007f9190610bb8565b6101b1565b6040516100919190610e94565b60405180910390f35b6100a26102d8565b6040516100af9190610e94565b60405180910390f35b6100d260048036038101906100cd9190610eae565b6102ed565b005b7f2ae215ce9fde588adfdea92976dc9aa45aa006a0f63942d8f9f21bd4537972a35f1c73ffffffffffffffffffffffffffffffffffffffff166387cea3ae826040518263ffffffff1660e01b815260040161012f9190610efb565b6020604051808303815f875af115801561014b573d5f803e3d5ffd5b505050506040513d601f19601f8201168201806040525081019061016f9190610f49565b6101ae576040517f08c379a00000000000000000000000000000000000000000000000000000000081526004016101a590610fce565b60405180910390fd5b50565b6101b96109fc565b5f6101ee6040518060600160405280603481526020016117e760349139846101e090611185565b6103cd90919063ffffffff16565b90505f6102396040518060400160405280600881526020017f726573706f6e73650000000000000000000000000000000000000000000000008152508361059390919063ffffffff16565b905060405160200161024a906111eb565b60405160208183030381529060405280519060200120816040516020016102719190611247565b60405160208183030381529060405280519060200120146102c7576040517f08c379a00000000000000000000000000000000000000000000000000000000081526004016102be906112a7565b60405180910390fd5b6102cf6102d8565b92505050919050565b6102e06109fc565b6102e86106aa565b905090565b7f2ae215ce9fde588adfdea92976dc9aa45aa006a0f63942d8f9f21bd4537972a35f1c73ffffffffffffffffffffffffffffffffffffffff1663ffbc563883836040518363ffffffff1660e01b815260040161034a9291906112c5565b6020604051808303815f875af1158015610366573d5f803e3d5ffd5b505050506040513d601f19601f8201168201806040525081019061038a9190610f49565b6103c9576040517f08c379a00000000000000000000000000000000000000000000000000000000081526004016103c090610fce565b60405180910390fd5b5050565b6103d5610a31565b5f6103df846106c1565b90506103e96107c5565b806103f857506103f7610821565b5b156104c457610405610885565b73ffffffffffffffffffffffffffffffffffffffff16632505a3bd82602001516040518263ffffffff1660e01b81526004016104419190611324565b602060405180830381865afa15801561045c573d5f803e3d5ffd5b505050506040513d601f19601f820116820180604052508101906104809190610f49565b6104bf576040517f08c379a00000000000000000000000000000000000000000000000000000000081526004016104b69061138e565b60405180910390fd5b610533565b6104f381602001516040518060e0016040528060ae815260200161181b60ae91396108a090919063ffffffff16565b610532576040517f08c379a00000000000000000000000000000000000000000000000000000000081526004016105299061138e565b60405180910390fd5b5b61054a8382604001516108c790919063ffffffff16565b610589576040517f08c379a0000000000000000000000000000000000000000000000000000000008152600401610580906113f6565b60405180910390fd5b8091505092915050565b60605f835f015151116105db576040517f08c379a00000000000000000000000000000000000000000000000000000000081526004016105d29061145e565b60405180910390fd5b5f6040518060400160405280855f01518152602001848152506040516020016106049190611573565b60405160208183030381529060405290505f8061010273ffffffffffffffffffffffffffffffffffffffff168360405161063e91906115d7565b5f60405180830381855afa9150503d805f8114610676576040519150601f19603f3d011682016040523d82523d5f602084013e61067b565b606091505b509150915061068a8282610994565b508080602001905181019061069f919061165b565b935050505092915050565b6106b26109fc565b6106ba6109fc565b8091505090565b6106c9610a31565b5f8061010073ffffffffffffffffffffffffffffffffffffffff16845f01516040516106f591906115d7565b5f60405180830381855afa9150503d805f811461072d576040519150601f19603f3d011682016040523d82523d5f602084013e610732565b606091505b50915091506107418282610994565b505f818060200190518101906107579190611772565b9050604051806060016040528082600260048110610778576107776117b9565b5b6020020151815260200182600360048110610796576107956117b9565b5b60200201518152602001825f600481106107b3576107b26117b9565b5b60200201518152509350505050919050565b5f60014614806107d55750600a46145b806107e05750608946145b806107ec575061014446145b806107f857506101e046145b80610804575061a4b146145b80610810575061a4ba46145b8061081c575061e70846145b905090565b5f62aa36a7461480610834575061012c46145b8061084057506112c146145b8061084c575061e70546145b8061085957506201388246145b80610866575062014a3446145b80610873575062066eee46145b80610880575062aa37dc46145b905090565b5f73c9708b07ae9906b92ff19281fd660fb19206a8fa905090565b5f815183511480156108bf575081805190602001208380519060200120145b905092915050565b5f805f61012073ffffffffffffffffffffffffffffffffffffffff166040518060400160405280878152602001868152506040516020016109089190611573565b60405160208183030381529060405260405161092491906115d7565b5f60405180830381855afa9150503d805f811461095c576040519150601f19603f3d011682016040523d82523d5f602084013e610961565b606091505b50915091506109708282610994565b505f818060200190518101906109869190610f49565b905080935050505092915050565b6060826109a9576109a4826109b8565b6109b1565b8190506109b2565b5b92915050565b5f815111156109ca5780518082602001fd5b6040517f1425ea4200000000000000000000000000000000000000000000000000000000815260040160405180910390fd5b6040518060800160405280610a0f610a52565b81526020015f80191681526020015f8152602001610a2b610aa8565b81525090565b60405180606001604052806060815260200160608152602001606081525090565b60405180606001604052805f7bffffffffffffffffffffffffffffffffffffffffffffffffffffffff19168152602001610a8a610b04565b81526020015f6001811115610aa257610aa1610ce7565b5b81525090565b60405180608001604052805f73ffffffffffffffffffffffffffffffffffffffff1681526020015f7bffffffffffffffffffffffffffffffffffffffffffffffffffffffff191681526020015f81526020015f80191681525090565b604051806101000160405280600890602082028036833780820191505090505090565b5f604051905090565b5f80fd5b5f80fd5b5f819050919050565b610b4a81610b38565b8114610b54575f80fd5b50565b5f81359050610b6581610b41565b92915050565b5f60208284031215610b8057610b7f610b30565b5b5f610b8d84828501610b57565b91505092915050565b5f80fd5b5f60208284031215610baf57610bae610b96565b5b81905092915050565b5f60208284031215610bcd57610bcc610b30565b5b5f82013567ffffffffffffffff811115610bea57610be9610b34565b5b610bf684828501610b9a565b91505092915050565b5f7fffffffff0000000000000000000000000000000000000000000000000000000082169050919050565b610c3381610bff565b82525050565b5f60089050919050565b5f81905092915050565b5f819050919050565b5f819050919050565b610c6881610c56565b82525050565b5f610c798383610c5f565b60208301905092915050565b5f602082019050919050565b610c9a81610c39565b610ca48184610c43565b9250610caf82610c4d565b805f5b83811015610cdf578151610cc68782610c6e565b9650610cd183610c85565b925050600181019050610cb2565b505050505050565b7f4e487b71000000000000000000000000000000000000000000000000000000005f52602160045260245ffd5b60028110610d2557610d24610ce7565b5b50565b5f819050610d3582610d14565b919050565b5f610d4482610d28565b9050919050565b610d5481610d3a565b82525050565b61014082015f820151610d6f5f850182610c2a565b506020820151610d826020850182610c91565b506040820151610d96610120850182610d4b565b50505050565b610da581610b38565b82525050565b5f73ffffffffffffffffffffffffffffffffffffffff82169050919050565b5f610dd482610dab565b9050919050565b610de481610dca565b82525050565b608082015f820151610dfe5f850182610ddb565b506020820151610e116020850182610c2a565b506040820151610e246040850182610d9c565b506060820151610e376060850182610c5f565b50505050565b61020082015f820151610e525f850182610d5a565b506020820151610e66610140850182610c5f565b506040820151610e7a610160850182610d9c565b506060820151610e8e610180850182610dea565b50505050565b5f61020082019050610ea85f830184610e3d565b92915050565b5f8060408385031215610ec457610ec3610b30565b5b5f610ed185828601610b57565b9250506020610ee285828601610b57565b9150509250929050565b610ef581610b38565b82525050565b5f602082019050610f0e5f830184610eec565b92915050565b5f8115159050919050565b610f2881610f14565b8114610f32575f80fd5b50565b5f81519050610f4381610f1f565b92915050565b5f60208284031215610f5e57610f5d610b30565b5b5f610f6b84828501610f35565b91505092915050565b5f82825260208201905092915050565b7f4661696c6564206368656174636f646520696e766f636174696f6e00000000005f82015250565b5f610fb8601b83610f74565b9150610fc382610f84565b602082019050919050565b5f6020820190508181035f830152610fe581610fac565b9050919050565b5f80fd5b5f601f19601f8301169050919050565b7f4e487b71000000000000000000000000000000000000000000000000000000005f52604160045260245ffd5b61103682610ff0565b810181811067ffffffffffffffff8211171561105557611054611000565b5b80604052505050565b5f611067610b27565b9050611073828261102d565b919050565b5f80fd5b5f80fd5b5f80fd5b5f67ffffffffffffffff82111561109e5761109d611000565b5b6110a782610ff0565b9050602081019050919050565b828183375f83830152505050565b5f6110d46110cf84611084565b61105e565b9050828152602081018484840111156110f0576110ef611080565b5b6110fb8482856110b4565b509392505050565b5f82601f8301126111175761111661107c565b5b81356111278482602086016110c2565b91505092915050565b5f6020828403121561114557611144610fec565b5b61114f602061105e565b90505f82013567ffffffffffffffff81111561116e5761116d611078565b5b61117a84828501611103565b5f8301525092915050565b5f6111903683611130565b9050919050565b5f81905092915050565b7f676f6f64000000000000000000000000000000000000000000000000000000005f82015250565b5f6111d5600483611197565b91506111e0826111a1565b600482019050919050565b5f6111f5826111c9565b9150819050919050565b5f81519050919050565b8281835e5f83830152505050565b5f611221826111ff565b61122b8185611197565b935061123b818560208601611209565b80840191505092915050565b5f6112528284611217565b915081905092915050565b7f526573706f6e7365206d7573742062652027676f6f64270000000000000000005f82015250565b5f611291601783610f74565b915061129c8261125d565b602082019050919050565b5f6020820190508181035f8301526112be81611285565b9050919050565b5f6040820190506112d85f830185610eec565b6112e56020830184610eec565b9392505050565b5f6112f6826111ff565b6113008185610f74565b9350611310818560208601611209565b61131981610ff0565b840191505092915050565b5f6020820190508181035f83015261133c81846112ec565b905092915050565b7f496e76616c6964206e6f74617279207075626c6963206b6579000000000000005f82015250565b5f611378601983610f74565b915061138382611344565b602082019050919050565b5f6020820190508181035f8301526113a58161136c565b9050919050565b7f496e636f72726563742055524c000000000000000000000000000000000000005f82015250565b5f6113e0600d83610f74565b91506113eb826113ac565b602082019050919050565b5f6020820190508181035f83015261140d816113d4565b9050919050565b7f426f647920697320656d707479000000000000000000000000000000000000005f82015250565b5f611448600d83610f74565b915061145382611414565b602082019050919050565b5f6020820190508181035f8301526114758161143c565b9050919050565b5f60029050919050565b5f81905092915050565b5f819050919050565b5f82825260208201905092915050565b5f6114b3826111ff565b6114bd8185611499565b93506114cd818560208601611209565b6114d681610ff0565b840191505092915050565b5f6114ec83836114a9565b905092915050565b5f602082019050919050565b5f61150a8261147c565b6115148185611486565b93508360208202850161152685611490565b805f5b85811015611561578484038952815161154285826114e1565b945061154d836114f4565b925060208a01995050600181019050611529565b50829750879550505050505092915050565b5f6020820190508181035f83015261158b8184611500565b905092915050565b5f81519050919050565b5f81905092915050565b5f6115b182611593565b6115bb818561159d565b93506115cb818560208601611209565b80840191505092915050565b5f6115e282846115a7565b915081905092915050565b5f6115ff6115fa84611084565b61105e565b90508281526020810184848401111561161b5761161a611080565b5b611626848285611209565b509392505050565b5f82601f8301126116425761164161107c565b5b81516116528482602086016115ed565b91505092915050565b5f602082840312156116705761166f610b30565b5b5f82015167ffffffffffffffff81111561168d5761168c610b34565b5b6116998482850161162e565b91505092915050565b5f67ffffffffffffffff8211156116bc576116bb611000565b5b602082029050919050565b5f80fd5b5f6116dd6116d8846116a2565b61105e565b905080602084028301858111156116f7576116f66116c7565b5b835b8181101561173e57805167ffffffffffffffff81111561171c5761171b61107c565b5b808601611729898261162e565b855260208501945050506020810190506116f9565b5050509392505050565b5f82601f83011261175c5761175b61107c565b5b60046117698482856116cb565b91505092915050565b5f6020828403121561178757611786610b30565b5b5f82015167ffffffffffffffff8111156117a4576117a3610b34565b5b6117b084828501611748565b91505092915050565b7f4e487b71000000000000000000000000000000000000000000000000000000005f52603260045260245ffdfe68747470733a2f2f676f6f642d74616b65732d6f6e6c792d66726f6e74656e642e76657263656c2e6170702f6170692f636861742d2d2d2d2d424547494e205055424c4943204b45592d2d2d2d2d0a4d465977454159484b6f5a497a6a3043415159464b34454541416f445167414565306a786e424f6261496a37586a673654584c434d3147472f566859353635300a4f72532f6a6763624275666f2f51446646764c2f69727a4976314a536d684769566373434843776f6c684458576367653776324973513d3d0a2d2d2d2d2d454e44205055424c4943204b45592d2d2d2d2d0aa2646970667358221220c402075e2112ede6af2543a4bdd29a53924947bbc575f3425f05f9c9662b7d3864736f6c634300081a0033","linkReferences":{}},"methodIdentifiers":{"main((string))":"efedf810","proof()":"faf924cf","setBlock(uint256)":"87cea3ae","setChain(uint256,uint256)":"ffbc5638"},"id":40}