{"abi":[{"type":"constructor","inputs":[{"name":"_prover","type":"address","internalType":"address"}],"stateMutability":"nonpayable"},{"type":"function","name":"_setTestVerifier","inputs":[{"name":"newVerifier","type":"address","internalType":"contract IProofVerifier"}],"outputs":[],"stateMutability":"nonpayable"},{"type":"function","name":"approved","inputs":[{"name":"","type":"string","internalType":"string"}],"outputs":[{"name":"","type":"bool","internalType":"bool"}],"stateMutability":"view"},{"type":"function","name":"prover","inputs":[],"outputs":[{"name":"","type":"address","internalType":"address"}],"stateMutability":"view"},{"type":"function","name":"verifier","inputs":[],"outputs":[{"name":"","type":"address","internalType":"contract IProofVerifier"}],"stateMutability":"view"},{"type":"function","name":"verify","inputs":[{"name":"","type":"tuple","internalType":"struct Proof","components":[{"name":"seal","type":"tuple","internalType":"struct Seal","components":[{"name":"verifierSelector","type":"bytes4","internalType":"bytes4"},{"name":"seal","type":"bytes32[8]","internalType":"bytes32[8]"},{"name":"mode","type":"uint8","internalType":"enum ProofMode"}]},{"name":"callGuestId","type":"bytes32","internalType":"bytes32"},{"name":"length","type":"uint256","internalType":"uint256"},{"name":"callAssumptions","type":"tuple","internalType":"struct CallAssumptions","components":[{"name":"proverContractAddress","type":"address","internalType":"address"},{"name":"functionSelector","type":"bytes4","internalType":"bytes4"},{"name":"settleBlockNumber","type":"uint256","internalType":"uint256"},{"name":"settleBlockHash","type":"bytes32","internalType":"bytes32"}]}]},{"name":"judgement","type":"string","internalType":"string"},{"name":"hashedPass","type":"string","internalType":"string"}],"outputs":[],"stateMutability":"nonpayable"},{"type":"function","name":"verifyT","inputs":[{"name":"judgement","type":"string","internalType":"string"},{"name":"hashedPass","type":"string","internalType":"string"}],"outputs":[],"stateMutability":"nonpayable"},{"type":"error","name":"InvalidChainId","inputs":[]}],"bytecode":{"object":"0x60a060405234801561000f575f80fd5b50604051616585380380616585833981810160405281019061003191906104c3565b61003f6100f760201b60201c565b5f806101000a81548173ffffffffffffffffffffffffffffffffffffffff021916908373ffffffffffffffffffffffffffffffffffffffff1602179055503373ffffffffffffffffffffffffffffffffffffffff1660808173ffffffffffffffffffffffffffffffffffffffff16815250508060015f6101000a81548173ffffffffffffffffffffffffffffffffffffffff021916908373ffffffffffffffffffffffffffffffffffffffff160217905550506105c9565b5f6101066102b060201b60201c565b15610113575f90506102ad565b61012161030c60201b60201c565b15610142575f61013561031760201b60201c565b92505050809150506102ad565b61015061037360201b60201c565b15610171575f6101646103d760201b60201c565b92505050809150506102ad565b61017f61043360201b60201c565b1561027b575f30306040516101939061044b565b61019e9291906104fd565b604051809103905ff0801580156101b7573d5f803e3d5ffd5b5090508073ffffffffffffffffffffffffffffffffffffffff166384cf84e17f246b73ff31ac86478555eca9579eac6782848100b707704fc2d4f25f13e9b7755f1b6040518263ffffffff1660e01b8152600401610215919061053c565b5f604051808303815f87803b15801561022c575f80fd5b505af115801561023e573d5f803e3d5ffd5b505050508060405161024f90610458565b61025991906105b0565b604051809103905ff080158015610272573d5f803e3d5ffd5b509150506102ad565b6040517f7a47c9a200000000000000000000000000000000000000000000000000000000815260040160405180910390fd5b90565b5f60014614806102c05750600a46145b806102cb5750608946145b806102d7575061014446145b806102e357506101e046145b806102ef575061a4b146145b806102fb575061a4ba46145b80610307575061e70846145b905090565b5f6121054614905090565b5f805f807344983a6cf1f7f4dca168005740433af66b666a1b90505f7339599ac412c14f9635f5b5bf8f4d4c1aeecf630790505f738793fcd526cac14a2e64f08add3f9b5c833b44639050828282955095509550505050909192565b5f62aa36a7461480610386575061012c46145b8061039257506112c146145b8061039e575061e70546145b806103ab57506201388246145b806103b8575062014a3446145b806103c5575062066eee46145b806103d2575062aa37dc46145b905090565b5f805f80731737776d145af312f24f51fff1f0b22f2f7b908290505f7339599ac412c14f9635f5b5bf8f4d4c1aeecf630790505f73e3443ab33ba5c406056fe10715da20c8619d41379050828282955095509550505050909192565b5f617a6946148061044657506204991946145b905090565b611fd080611fcc83390190565b6125e980613f9c83390190565b5f80fd5b5f73ffffffffffffffffffffffffffffffffffffffff82169050919050565b5f61049282610469565b9050919050565b6104a281610488565b81146104ac575f80fd5b50565b5f815190506104bd81610499565b92915050565b5f602082840312156104d8576104d7610465565b5b5f6104e5848285016104af565b91505092915050565b6104f781610488565b82525050565b5f6040820190506105105f8301856104ee565b61051d60208301846104ee565b9392505050565b5f819050919050565b61053681610524565b82525050565b5f60208201905061054f5f83018461052d565b92915050565b5f819050919050565b5f61057861057361056e84610469565b610555565b610469565b9050919050565b5f6105898261055e565b9050919050565b5f61059a8261057f565b9050919050565b6105aa81610590565b82525050565b5f6020820190506105c35f8301846105a1565b92915050565b6080516119eb6105e15f395f61033101526119eb5ff3fe608060405234801561000f575f80fd5b5060043610610060575f3560e01c80632b7ac3f31461006457806332a8f30f146100825780635006f66a146100a05780639b819627146100bc5780639b8b30c8146100d8578063fa322eb2146100f4575b5f80fd5b61006c610124565b6040516100799190610b3b565b60405180910390f35b61008a610147565b6040516100979190610b74565b60405180910390f35b6100ba60048036038101906100b59190610cda565b61016c565b005b6100d660048036038101906100d19190610d73565b610232565b005b6100f260048036038101906100ed9190610e39565b61032f565b005b61010e60048036038101906101099190610e64565b610521565b60405161011b9190610ec5565b60405180910390f35b5f8054906101000a900473ffffffffffffffffffffffffffffffffffffffff1681565b60015f9054906101000a900473ffffffffffffffffffffffffffffffffffffffff1681565b60405160200161017b90610f32565b60405160208183030381529060405280519060200120826040516020016101a29190610f8e565b60405160208183030381529060405280519060200120146101f8576040517f08c379a00000000000000000000000000000000000000000000000000000000081526004016101ef90610ffe565b60405180910390fd5b600160028260405161020a9190610f8e565b90815260200160405180910390205f6101000a81548160ff0219169083151502179055505050565b60015f9054906101000a900473ffffffffffffffffffffffffffffffffffffffff1663a09d0df360e01b6102668282610556565b60405160200161027590610f32565b604051602081830303815290604052805190602001208460405160200161029c9190610f8e565b60405160208183030381529060405280519060200120146102f2576040517f08c379a00000000000000000000000000000000000000000000000000000000081526004016102e990610ffe565b60405180910390fd5b60016002846040516103049190610f8e565b90815260200160405180910390205f6101000a81548160ff0219169083151502179055505050505050565b7f000000000000000000000000000000000000000000000000000000000000000073ffffffffffffffffffffffffffffffffffffffff163373ffffffffffffffffffffffffffffffffffffffff16146103bd576040517f08c379a00000000000000000000000000000000000000000000000000000000081526004016103b49061108c565b60405180910390fd5b6103c56105f4565b15610405576040517f08c379a00000000000000000000000000000000000000000000000000000000081526004016103fc9061111a565b60405180910390fd5b5f73ffffffffffffffffffffffffffffffffffffffff168173ffffffffffffffffffffffffffffffffffffffff16633fd66f226040518163ffffffff1660e01b8152600401602060405180830381865afa158015610465573d5f803e3d5ffd5b505050506040513d601f19601f820116820180604052508101906104899190611173565b73ffffffffffffffffffffffffffffffffffffffff16036104df576040517f08c379a00000000000000000000000000000000000000000000000000000000081526004016104d69061120e565b60405180910390fd5b805f806101000a81548173ffffffffffffffffffffffffffffffffffffffff021916908373ffffffffffffffffffffffffffffffffffffffff16021790555050565b6002818051602081018201805184825260208301602085012081835280955050505050505f915054906101000a900460ff1681565b5f80610560610650565b915091505f8054906101000a900473ffffffffffffffffffffffffffffffffffffffff1673ffffffffffffffffffffffffffffffffffffffff16634bc8e31c838387876040518563ffffffff1660e01b81526004016105c294939291906114b8565b5f6040518083038186803b1580156105d8575f80fd5b505afa1580156105ea573d5f803e3d5ffd5b5050505050505050565b5f60014614806106045750600a46145b8061060f5750608946145b8061061b575061014446145b8061062757506101e046145b80610633575061a4b146145b8061063f575061a4ba46145b8061064b575061e70846145b905090565b6106586109b7565b5f805f36600490809261066d93929190611507565b81019061067a9190611813565b90505f60208060208061068d919061186c565b610697919061186c565b6106a1919061186c565b602080602061010060206106b5919061186c565b6106bf919061186c565b6106c9919061186c565b6106d3919061186c565b60046106df919061186c565b6106e9919061186c565b90505f6020806020806106fc919061186c565b610706919061186c565b610710919061186c565b602080602080610720919061186c565b61072a919061186c565b610734919061186c565b60208060206101006020610748919061186c565b610752919061186c565b61075c919061186c565b610766919061186c565b610770919061186c565b846040015161077f919061189f565b610789919061189f565b90505f8183610798919061186c565b90505f8036602080602061010060206107b1919061186c565b6107bb919061186c565b6107c5919061186c565b6107cf919061186c565b60046107db919061186c565b906020806020806107ec919061186c565b6107f6919061186c565b610800919061186c565b60208060206101006020610814919061186c565b61081e919061186c565b610828919061186c565b610832919061186c565b600461083e919061186c565b610848919061186c565b9261085593929190611507565b8080601f0160208091040260200160405190810160405280939291908181526020018383808284375f81840152601f19601f8201169050808301925050505050505090505f8036869085926108ac93929190611507565b8080601f0160208091040260200160405190810160405280939291908181526020018383808284375f81840152601f19601f8201169050808301925050505050505090505f826108fa6109a0565b60405160200161090a91906118d2565b6040516020818303038152906040528360405160200161092c93929190611930565b60405160208183030381529060405290505f60028260405161094e9190611960565b602060405180830381855afa158015610969573d5f803e3d5ffd5b5050506040513d601f19601f8201168201806040525081019061098c919061198a565b905087819950995050505050505050509091565b6109a86109b7565b6109b06109b7565b8091505090565b60405180608001604052806109ca6109ec565b81526020015f80191681526020015f81526020016109e6610a42565b81525090565b60405180606001604052805f7bffffffffffffffffffffffffffffffffffffffffffffffffffffffff19168152602001610a24610a9e565b81526020015f6001811115610a3c57610a3b611314565b5b81525090565b60405180608001604052805f73ffffffffffffffffffffffffffffffffffffffff1681526020015f7bffffffffffffffffffffffffffffffffffffffffffffffffffffffff191681526020015f81526020015f80191681525090565b604051806101000160405280600890602082028036833780820191505090505090565b5f73ffffffffffffffffffffffffffffffffffffffff82169050919050565b5f819050919050565b5f610b03610afe610af984610ac1565b610ae0565b610ac1565b9050919050565b5f610b1482610ae9565b9050919050565b5f610b2582610b0a565b9050919050565b610b3581610b1b565b82525050565b5f602082019050610b4e5f830184610b2c565b92915050565b5f610b5e82610ac1565b9050919050565b610b6e81610b54565b82525050565b5f602082019050610b875f830184610b65565b92915050565b5f604051905090565b5f80fd5b5f80fd5b5f80fd5b5f80fd5b5f601f19601f8301169050919050565b7f4e487b71000000000000000000000000000000000000000000000000000000005f52604160045260245ffd5b610bec82610ba6565b810181811067ffffffffffffffff82111715610c0b57610c0a610bb6565b5b80604052505050565b5f610c1d610b8d565b9050610c298282610be3565b919050565b5f67ffffffffffffffff821115610c4857610c47610bb6565b5b610c5182610ba6565b9050602081019050919050565b828183375f83830152505050565b5f610c7e610c7984610c2e565b610c14565b905082815260208101848484011115610c9a57610c99610ba2565b5b610ca5848285610c5e565b509392505050565b5f82601f830112610cc157610cc0610b9e565b5b8135610cd1848260208601610c6c565b91505092915050565b5f8060408385031215610cf057610cef610b96565b5b5f83013567ffffffffffffffff811115610d0d57610d0c610b9a565b5b610d1985828601610cad565b925050602083013567ffffffffffffffff811115610d3a57610d39610b9a565b5b610d4685828601610cad565b9150509250929050565b5f80fd5b5f6102008284031215610d6a57610d69610d50565b5b81905092915050565b5f805f6102408486031215610d8b57610d8a610b96565b5b5f610d9886828701610d54565b93505061020084013567ffffffffffffffff811115610dba57610db9610b9a565b5b610dc686828701610cad565b92505061022084013567ffffffffffffffff811115610de857610de7610b9a565b5b610df486828701610cad565b9150509250925092565b5f610e0882610b54565b9050919050565b610e1881610dfe565b8114610e22575f80fd5b50565b5f81359050610e3381610e0f565b92915050565b5f60208284031215610e4e57610e4d610b96565b5b5f610e5b84828501610e25565b91505092915050565b5f60208284031215610e7957610e78610b96565b5b5f82013567ffffffffffffffff811115610e9657610e95610b9a565b5b610ea284828501610cad565b91505092915050565b5f8115159050919050565b610ebf81610eab565b82525050565b5f602082019050610ed85f830184610eb6565b92915050565b5f81905092915050565b7f676f6f64000000000000000000000000000000000000000000000000000000005f82015250565b5f610f1c600483610ede565b9150610f2782610ee8565b600482019050919050565b5f610f3c82610f10565b9150819050919050565b5f81519050919050565b8281835e5f83830152505050565b5f610f6882610f46565b610f728185610ede565b9350610f82818560208601610f50565b80840191505092915050565b5f610f998284610f5e565b915081905092915050565b5f82825260208201905092915050565b7f526573706f6e7365206d7573742062652027676f6f64270000000000000000005f82015250565b5f610fe8601783610fa4565b9150610ff382610fb4565b602082019050919050565b5f6020820190508181035f83015261101581610fdc565b9050919050565b7f4f6e6c79206465706c6f7965722063616e206368616e676520766572696669655f8201527f7200000000000000000000000000000000000000000000000000000000000000602082015250565b5f611076602183610fa4565b91506110818261101c565b604082019050919050565b5f6020820190508181035f8301526110a38161106a565b9050919050565b7f4368616e67696e6720766572696669657273206973206e6f7420616c6c6f77655f8201527f64206f6e206d61696e6e65740000000000000000000000000000000000000000602082015250565b5f611104602c83610fa4565b915061110f826110aa565b604082019050919050565b5f6020820190508181035f830152611131816110f8565b9050919050565b5f61114282610b54565b9050919050565b61115281611138565b811461115c575f80fd5b50565b5f8151905061116d81611149565b92915050565b5f6020828403121561118857611187610b96565b5b5f6111958482850161115f565b91505092915050565b7f56657269666965722773207265706f7369746f727920616464726573732069735f8201527f206e6f7420736574000000000000000000000000000000000000000000000000602082015250565b5f6111f8602883610fa4565b91506112038261119e565b604082019050919050565b5f6020820190508181035f830152611225816111ec565b9050919050565b5f7fffffffff0000000000000000000000000000000000000000000000000000000082169050919050565b6112608161122c565b82525050565b5f60089050919050565b5f81905092915050565b5f819050919050565b5f819050919050565b61129581611283565b82525050565b5f6112a6838361128c565b60208301905092915050565b5f602082019050919050565b6112c781611266565b6112d18184611270565b92506112dc8261127a565b805f5b8381101561130c5781516112f3878261129b565b96506112fe836112b2565b9250506001810190506112df565b505050505050565b7f4e487b71000000000000000000000000000000000000000000000000000000005f52602160045260245ffd5b6002811061135257611351611314565b5b50565b5f81905061136282611341565b919050565b5f61137182611355565b9050919050565b61138181611367565b82525050565b61014082015f82015161139c5f850182611257565b5060208201516113af60208501826112be565b5060408201516113c3610120850182611378565b50505050565b5f819050919050565b6113db816113c9565b82525050565b6113ea81610b54565b82525050565b608082015f8201516114045f8501826113e1565b5060208201516114176020850182611257565b50604082015161142a60408501826113d2565b50606082015161143d606085018261128c565b50505050565b61020082015f8201516114585f850182611387565b50602082015161146c61014085018261128c565b5060408201516114806101608501826113d2565b5060608201516114946101808501826113f0565b50505050565b6114a381611283565b82525050565b6114b28161122c565b82525050565b5f610260820190506114cc5f830187611443565b6114da61020083018661149a565b6114e8610220830185610b65565b6114f66102408301846114a9565b95945050505050565b5f80fd5b5f80fd5b5f808585111561151a576115196114ff565b5b8386111561152b5761152a611503565b5b6001850283019150848603905094509492505050565b5f80fd5b61154e8161122c565b8114611558575f80fd5b50565b5f8135905061156981611545565b92915050565b5f67ffffffffffffffff82111561158957611588610bb6565b5b602082029050919050565b5f80fd5b6115a181611283565b81146115ab575f80fd5b50565b5f813590506115bc81611598565b92915050565b5f6115d46115cf8461156f565b610c14565b905080602084028301858111156115ee576115ed611594565b5b835b81811015611617578061160388826115ae565b8452602084019350506020810190506115f0565b5050509392505050565b5f82601f83011261163557611634610b9e565b5b60086116428482856115c2565b91505092915050565b60028110611657575f80fd5b50565b5f813590506116688161164b565b92915050565b5f610140828403121561168457611683611541565b5b61168e6060610c14565b90505f61169d8482850161155b565b5f8301525060206116b084828501611621565b6020830152506101206116c58482850161165a565b60408301525092915050565b6116da816113c9565b81146116e4575f80fd5b50565b5f813590506116f5816116d1565b92915050565b61170481610b54565b811461170e575f80fd5b50565b5f8135905061171f816116fb565b92915050565b5f6080828403121561173a57611739611541565b5b6117446080610c14565b90505f61175384828501611711565b5f8301525060206117668482850161155b565b602083015250604061177a848285016116e7565b604083015250606061178e848285016115ae565b60608301525092915050565b5f61020082840312156117b0576117af611541565b5b6117ba6080610c14565b90505f6117c98482850161166e565b5f830152506101406117dd848285016115ae565b6020830152506101606117f2848285016116e7565b60408301525061018061180784828501611725565b60608301525092915050565b5f610200828403121561182957611828610b96565b5b5f6118368482850161179a565b91505092915050565b7f4e487b71000000000000000000000000000000000000000000000000000000005f52601160045260245ffd5b5f611876826113c9565b9150611881836113c9565b92508282019050808211156118995761189861183f565b5b92915050565b5f6118a9826113c9565b91506118b4836113c9565b92508282039050818111156118cc576118cb61183f565b5b92915050565b5f610200820190506118e65f830184611443565b92915050565b5f81519050919050565b5f81905092915050565b5f61190a826118ec565b61191481856118f6565b9350611924818560208601610f50565b80840191505092915050565b5f61193b8286611900565b91506119478285611900565b91506119538284611900565b9150819050949350505050565b5f61196b8284611900565b915081905092915050565b5f8151905061198481611598565b92915050565b5f6020828403121561199f5761199e610b96565b5b5f6119ac84828501611976565b9150509291505056fea264697066735822122042e273126f9236c922ac311d8d0ca3fbd332d15e45df078b322dd02c00b5083f64736f6c634300081a0033608060405234801561000f575f80fd5b50604051611fd0380380611fd083398181016040528101906100319190610342565b6100435f801b8361007c60201b60201c565b506100747fb19546dff01e856fb3f010c267a7b1c60363cf8a4664e21cc89c26224620214e8261007c60201b60201c565b505050610380565b5f8061008e84846100c560201b60201c565b905080156100bb576100b98360015f8781526020019081526020015f206101ba60201b90919060201c565b505b8091505092915050565b5f6100d683836101ed60201b60201c565b6101b05760015f808581526020019081526020015f205f015f8473ffffffffffffffffffffffffffffffffffffffff1673ffffffffffffffffffffffffffffffffffffffff1681526020019081526020015f205f6101000a81548160ff02191690831515021790555061014d61025060201b60201c565b73ffffffffffffffffffffffffffffffffffffffff168273ffffffffffffffffffffffffffffffffffffffff16847f2f8788117e7eff1d82e926ec794901d17c78024a50270940304540a733656f0d60405160405180910390a4600190506101b4565b5f90505b92915050565b5f6101e5835f018373ffffffffffffffffffffffffffffffffffffffff165f1b61025760201b60201c565b905092915050565b5f805f8481526020019081526020015f205f015f8373ffffffffffffffffffffffffffffffffffffffff1673ffffffffffffffffffffffffffffffffffffffff1681526020019081526020015f205f9054906101000a900460ff16905092915050565b5f33905090565b5f61026883836102c460201b60201c565b6102ba57825f0182908060018154018082558091505060019003905f5260205f20015f9091909190915055825f0180549050836001015f8481526020019081526020015f2081905550600190506102be565b5f90505b92915050565b5f80836001015f8481526020019081526020015f20541415905092915050565b5f80fd5b5f73ffffffffffffffffffffffffffffffffffffffff82169050919050565b5f610311826102e8565b9050919050565b61032181610307565b811461032b575f80fd5b50565b5f8151905061033c81610318565b92915050565b5f8060408385031215610358576103576102e4565b5b5f6103658582860161032e565b92505060206103768582860161032e565b9150509250929050565b611c438061038d5f395ff3fe608060405234801561000f575f80fd5b5060043610610135575f3560e01c8063853b5d19116100b6578063c5df91b51161007a578063c5df91b51461036b578063ca0d535814610387578063ca15c873146103a3578063d547741f146103d3578063e58378bb146103ef578063f2fde38b1461040d57610135565b8063853b5d19146102b55780639010d07c146102d157806391d1485414610301578063a217fddf14610331578063ada8f9191461034f57610135565b80632f2ff15d116100fd5780632f2ff15d1461021557806336568abe14610231578063755e936f1461024d57806381e4c9a31461026957806384cf84e11461029957610135565b806301ffc9a7146101395780631af6c43114610169578063248a9ca3146101995780632505a3bd146101c95780632ad82eea146101f9575b5f80fd5b610153600480360381019061014e91906113a4565b610429565b60405161016091906113e9565b60405180910390f35b610183600480360381019061017e9190611435565b6104a2565b60405161019091906113e9565b60405180910390f35b6101b360048036038101906101ae9190611435565b6104c8565b6040516101c0919061146f565b60405180910390f35b6101e360048036038101906101de91906115c4565b6104e4565b6040516101f091906113e9565b60405180910390f35b610213600480360381019061020e91906115c4565b610511565b005b61022f600480360381019061022a9190611665565b610620565b005b61024b60048036038101906102469190611665565b610642565b005b61026760048036038101906102629190611741565b6106bd565b005b610283600480360381019061027e9190611741565b6107ca565b60405161029091906113e9565b60405180910390f35b6102b360048036038101906102ae9190611435565b6107f7565b005b6102cf60048036038101906102ca9190611741565b6108ce565b005b6102eb60048036038101906102e691906117bb565b6109dd565b6040516102f89190611808565b60405180910390f35b61031b60048036038101906103169190611665565b610a09565b60405161032891906113e9565b60405180910390f35b610339610a6c565b604051610346919061146f565b60405180910390f35b61036960048036038101906103649190611821565b610a72565b005b61038560048036038101906103809190611435565b610a8d565b005b6103a1600480360381019061039c91906115c4565b610b62565b005b6103bd60048036038101906103b89190611435565b610c6f565b6040516103ca919061185b565b60405180910390f35b6103ed60048036038101906103e89190611665565b610c90565b005b6103f7610cb2565b604051610404919061146f565b60405180910390f35b61042760048036038101906104229190611821565b610cd6565b005b5f7f5a05180f000000000000000000000000000000000000000000000000000000007bffffffffffffffffffffffffffffffffffffffffffffffffffffffff1916827bffffffffffffffffffffffffffffffffffffffffffffffffffffffff1916148061049b575061049a82610d5b565b5b9050919050565b5f60035f8381526020019081526020015f205f9054906101000a900460ff169050919050565b5f805f8381526020019081526020015f20600101549050919050565b5f60045f838051906020012081526020019081526020015f205f9054906101000a900460ff169050919050565b7fb19546dff01e856fb3f010c267a7b1c60363cf8a4664e21cc89c26224620214e61053b81610dd4565b5f8280519060200120905060045f8281526020019081526020015f205f9054906101000a900460ff16156105a4576040517f08c379a000000000000000000000000000000000000000000000000000000000815260040161059b906118ce565b60405180910390fd5b600160045f8381526020019081526020015f205f6101000a81548160ff0219169083151502179055503373ffffffffffffffffffffffffffffffffffffffff167fcbfa55581c230aeb174d969838d927cdd297755dfb967a33134312f1377ee71d84604051610613919061193c565b60405180910390a2505050565b610629826104c8565b61063281610dd4565b61063c8383610de8565b50505050565b61064a610e2b565b73ffffffffffffffffffffffffffffffffffffffff168173ffffffffffffffffffffffffffffffffffffffff16146106ae576040517f6697b23200000000000000000000000000000000000000000000000000000000815260040160405180910390fd5b6106b88282610e32565b505050565b7fb19546dff01e856fb3f010c267a7b1c60363cf8a4664e21cc89c26224620214e6106e781610dd4565b5f8280519060200120905060025f8281526020019081526020015f205f9054906101000a900460ff1661074f576040517f08c379a0000000000000000000000000000000000000000000000000000000008152600401610746906119a6565b60405180910390fd5b5f60025f8381526020019081526020015f205f6101000a81548160ff0219169083151502179055503373ffffffffffffffffffffffffffffffffffffffff167f66e43f8252a3257fe010a4fd6ae50f57624762cc64a6eceadb04b18cfdefac7d846040516107bd9190611a16565b60405180910390a2505050565b5f60025f838051906020012081526020019081526020015f205f9054906101000a900460ff169050919050565b7fb19546dff01e856fb3f010c267a7b1c60363cf8a4664e21cc89c26224620214e61082181610dd4565b61082a826104a2565b1561086a576040517f08c379a000000000000000000000000000000000000000000000000000000000815260040161086190611a80565b60405180910390fd5b600160035f8481526020019081526020015f205f6101000a81548160ff0219169083151502179055507f010120d82c0c66b257c0ea628d405b1d3c2d37bb8dd9141f6c5c12cb0375c572826040516108c2919061146f565b60405180910390a15050565b7fb19546dff01e856fb3f010c267a7b1c60363cf8a4664e21cc89c26224620214e6108f881610dd4565b5f8280519060200120905060025f8281526020019081526020015f205f9054906101000a900460ff1615610961576040517f08c379a0000000000000000000000000000000000000000000000000000000008152600401610958906118ce565b60405180910390fd5b600160025f8381526020019081526020015f205f6101000a81548160ff0219169083151502179055503373ffffffffffffffffffffffffffffffffffffffff167f0a249d4766726d36cb6d6ac22cf998dc9fc02bb4ff9fda73ec1e3061c8a1db09846040516109d09190611a16565b60405180910390a2505050565b5f610a018260015f8681526020019081526020015f20610e7590919063ffffffff16565b905092915050565b5f805f8481526020019081526020015f205f015f8373ffffffffffffffffffffffffffffffffffffffff1673ffffffffffffffffffffffffffffffffffffffff1681526020019081526020015f205f9054906101000a900460ff16905092915050565b5f801b81565b610a7e5f801b82610620565b610a8a5f801b33610642565b50565b7fb19546dff01e856fb3f010c267a7b1c60363cf8a4664e21cc89c26224620214e610ab781610dd4565b610ac0826104a2565b610aff576040517f08c379a0000000000000000000000000000000000000000000000000000000008152600401610af690611b0e565b60405180910390fd5b5f60035f8481526020019081526020015f205f6101000a81548160ff0219169083151502179055507f4072861add20da436ef0a8274b90d102aea17b603f972cc8196d51f1a5d5617982604051610b56919061146f565b60405180910390a15050565b7fb19546dff01e856fb3f010c267a7b1c60363cf8a4664e21cc89c26224620214e610b8c81610dd4565b5f8280519060200120905060045f8281526020019081526020015f205f9054906101000a900460ff16610bf4576040517f08c379a0000000000000000000000000000000000000000000000000000000008152600401610beb906119a6565b60405180910390fd5b5f60045f8381526020019081526020015f205f6101000a81548160ff0219169083151502179055503373ffffffffffffffffffffffffffffffffffffffff167f69c40cdda8ad6e074bf320a4a76804a6652eb5231bda91b690dcb98010b2707984604051610c62919061193c565b60405180910390a2505050565b5f610c8960015f8481526020019081526020015f20610e8c565b9050919050565b610c99826104c8565b610ca281610dd4565b610cac8383610e32565b50505050565b7fb19546dff01e856fb3f010c267a7b1c60363cf8a4664e21cc89c26224620214e81565b5f610d017fb19546dff01e856fb3f010c267a7b1c60363cf8a4664e21cc89c26224620214e5f6109dd565b9050610d2d7fb19546dff01e856fb3f010c267a7b1c60363cf8a4664e21cc89c26224620214e82610c90565b610d577fb19546dff01e856fb3f010c267a7b1c60363cf8a4664e21cc89c26224620214e83610620565b5050565b5f7f7965db0b000000000000000000000000000000000000000000000000000000007bffffffffffffffffffffffffffffffffffffffffffffffffffffffff1916827bffffffffffffffffffffffffffffffffffffffffffffffffffffffff19161480610dcd5750610dcc82610e9f565b5b9050919050565b610de581610de0610e2b565b610f08565b50565b5f80610df48484610f59565b90508015610e2157610e1f8360015f8781526020019081526020015f2061104290919063ffffffff16565b505b8091505092915050565b5f33905090565b5f80610e3e848461106f565b90508015610e6b57610e698360015f8781526020019081526020015f2061115890919063ffffffff16565b505b8091505092915050565b5f610e82835f0183611185565b5f1c905092915050565b5f610e98825f016111ac565b9050919050565b5f7f01ffc9a7000000000000000000000000000000000000000000000000000000007bffffffffffffffffffffffffffffffffffffffffffffffffffffffff1916827bffffffffffffffffffffffffffffffffffffffffffffffffffffffff1916149050919050565b610f128282610a09565b610f555780826040517fe2517d3f000000000000000000000000000000000000000000000000000000008152600401610f4c929190611b2c565b60405180910390fd5b5050565b5f610f648383610a09565b6110385760015f808581526020019081526020015f205f015f8473ffffffffffffffffffffffffffffffffffffffff1673ffffffffffffffffffffffffffffffffffffffff1681526020019081526020015f205f6101000a81548160ff021916908315150217905550610fd5610e2b565b73ffffffffffffffffffffffffffffffffffffffff168273ffffffffffffffffffffffffffffffffffffffff16847f2f8788117e7eff1d82e926ec794901d17c78024a50270940304540a733656f0d60405160405180910390a46001905061103c565b5f90505b92915050565b5f611067835f018373ffffffffffffffffffffffffffffffffffffffff165f1b6111bb565b905092915050565b5f61107a8383610a09565b1561114e575f805f8581526020019081526020015f205f015f8473ffffffffffffffffffffffffffffffffffffffff1673ffffffffffffffffffffffffffffffffffffffff1681526020019081526020015f205f6101000a81548160ff0219169083151502179055506110eb610e2b565b73ffffffffffffffffffffffffffffffffffffffff168273ffffffffffffffffffffffffffffffffffffffff16847ff6391f5c32d9c69d2a47ea670b442974b53935d1edc7fd64eb21e047a839171b60405160405180910390a460019050611152565b5f90505b92915050565b5f61117d835f018373ffffffffffffffffffffffffffffffffffffffff165f1b611222565b905092915050565b5f825f01828154811061119b5761119a611b53565b5b905f5260205f200154905092915050565b5f815f01805490509050919050565b5f6111c6838361131e565b61121857825f0182908060018154018082558091505060019003905f5260205f20015f9091909190915055825f0180549050836001015f8481526020019081526020015f20819055506001905061121c565b5f90505b92915050565b5f80836001015f8481526020019081526020015f205490505f8114611313575f60018261124f9190611bad565b90505f6001865f01805490506112659190611bad565b90508082146112cb575f865f01828154811061128457611283611b53565b5b905f5260205f200154905080875f0184815481106112a5576112a4611b53565b5b905f5260205f20018190555083876001015f8381526020019081526020015f2081905550505b855f018054806112de576112dd611be0565b5b600190038181905f5260205f20015f90559055856001015f8681526020019081526020015f205f905560019350505050611318565b5f9150505b92915050565b5f80836001015f8481526020019081526020015f20541415905092915050565b5f604051905090565b5f80fd5b5f80fd5b5f7fffffffff0000000000000000000000000000000000000000000000000000000082169050919050565b6113838161134f565b811461138d575f80fd5b50565b5f8135905061139e8161137a565b92915050565b5f602082840312156113b9576113b8611347565b5b5f6113c684828501611390565b91505092915050565b5f8115159050919050565b6113e3816113cf565b82525050565b5f6020820190506113fc5f8301846113da565b92915050565b5f819050919050565b61141481611402565b811461141e575f80fd5b50565b5f8135905061142f8161140b565b92915050565b5f6020828403121561144a57611449611347565b5b5f61145784828501611421565b91505092915050565b61146981611402565b82525050565b5f6020820190506114825f830184611460565b92915050565b5f80fd5b5f80fd5b5f601f19601f8301169050919050565b7f4e487b71000000000000000000000000000000000000000000000000000000005f52604160045260245ffd5b6114d682611490565b810181811067ffffffffffffffff821117156114f5576114f46114a0565b5b80604052505050565b5f61150761133e565b905061151382826114cd565b919050565b5f67ffffffffffffffff821115611532576115316114a0565b5b61153b82611490565b9050602081019050919050565b828183375f83830152505050565b5f61156861156384611518565b6114fe565b9050828152602081018484840111156115845761158361148c565b5b61158f848285611548565b509392505050565b5f82601f8301126115ab576115aa611488565b5b81356115bb848260208601611556565b91505092915050565b5f602082840312156115d9576115d8611347565b5b5f82013567ffffffffffffffff8111156115f6576115f561134b565b5b61160284828501611597565b91505092915050565b5f73ffffffffffffffffffffffffffffffffffffffff82169050919050565b5f6116348261160b565b9050919050565b6116448161162a565b811461164e575f80fd5b50565b5f8135905061165f8161163b565b92915050565b5f806040838503121561167b5761167a611347565b5b5f61168885828601611421565b925050602061169985828601611651565b9150509250929050565b5f67ffffffffffffffff8211156116bd576116bc6114a0565b5b6116c682611490565b9050602081019050919050565b5f6116e56116e0846116a3565b6114fe565b9050828152602081018484840111156117015761170061148c565b5b61170c848285611548565b509392505050565b5f82601f83011261172857611727611488565b5b81356117388482602086016116d3565b91505092915050565b5f6020828403121561175657611755611347565b5b5f82013567ffffffffffffffff8111156117735761177261134b565b5b61177f84828501611714565b91505092915050565b5f819050919050565b61179a81611788565b81146117a4575f80fd5b50565b5f813590506117b581611791565b92915050565b5f80604083850312156117d1576117d0611347565b5b5f6117de85828601611421565b92505060206117ef858286016117a7565b9150509250929050565b6118028161162a565b82525050565b5f60208201905061181b5f8301846117f9565b92915050565b5f6020828403121561183657611835611347565b5b5f61184384828501611651565b91505092915050565b61185581611788565b82525050565b5f60208201905061186e5f83018461184c565b92915050565b5f82825260208201905092915050565b7f4b657920697320616c72656164792076616c69640000000000000000000000005f82015250565b5f6118b8601483611874565b91506118c382611884565b602082019050919050565b5f6020820190508181035f8301526118e5816118ac565b9050919050565b5f81519050919050565b8281835e5f83830152505050565b5f61190e826118ec565b6119188185611874565b93506119288185602086016118f6565b61193181611490565b840191505092915050565b5f6020820190508181035f8301526119548184611904565b905092915050565b7f43616e6e6f74207265766f6b6520696e76616c6964206b6579000000000000005f82015250565b5f611990601983611874565b915061199b8261195c565b602082019050919050565b5f6020820190508181035f8301526119bd81611984565b9050919050565b5f81519050919050565b5f82825260208201905092915050565b5f6119e8826119c4565b6119f281856119ce565b9350611a028185602086016118f6565b611a0b81611490565b840191505092915050565b5f6020820190508181035f830152611a2e81846119de565b905092915050565b7f496d616765494420697320616c726561647920737570706f72746564000000005f82015250565b5f611a6a601c83611874565b9150611a7582611a36565b602082019050919050565b5f6020820190508181035f830152611a9781611a5e565b9050919050565b7f43616e6e6f74207265766f6b6520756e737570706f7274656420496d616765495f8201527f4400000000000000000000000000000000000000000000000000000000000000602082015250565b5f611af8602183611874565b9150611b0382611a9e565b604082019050919050565b5f6020820190508181035f830152611b2581611aec565b9050919050565b5f604082019050611b3f5f8301856117f9565b611b4c6020830184611460565b9392505050565b7f4e487b71000000000000000000000000000000000000000000000000000000005f52603260045260245ffd5b7f4e487b71000000000000000000000000000000000000000000000000000000005f52601160045260245ffd5b5f611bb782611788565b9150611bc283611788565b9250828203905081811115611bda57611bd9611b80565b5b92915050565b7f4e487b71000000000000000000000000000000000000000000000000000000005f52603160045260245ffdfea2646970667358221220e36fe10fe30762e3703b2fa24b35dba287e45d9b22cc4046053e625e9350bc9664736f6c634300081a003360e060405234801561000f575f80fd5b506040516125e93803806125e983398181016040528101906100319190610221565b808073ffffffffffffffffffffffffffffffffffffffff1660c08173ffffffffffffffffffffffffffffffffffffffff16815250505061007561014960201b60201c565b156100ac576040517f7a47c9a200000000000000000000000000000000000000000000000000000000815260040160405180910390fd5b63deafbeef60e01b6040516100c0906101a5565b6100ca9190610286565b604051809103905ff0801580156100e3573d5f803e3d5ffd5b5073ffffffffffffffffffffffffffffffffffffffff1660a08173ffffffffffffffffffffffffffffffffffffffff168152505060018081111561012a5761012961029f565b5b608081600181111561013f5761013e61029f565b5b81525050506102cc565b5f60014614806101595750600a46145b806101645750608946145b80610170575061014446145b8061017c57506101e046145b80610188575061a4b146145b80610194575061a4ba46145b806101a0575061e70846145b905090565b61100a806115df83390190565b5f80fd5b5f73ffffffffffffffffffffffffffffffffffffffff82169050919050565b5f6101df826101b6565b9050919050565b5f6101f0826101d5565b9050919050565b610200816101e6565b811461020a575f80fd5b50565b5f8151905061021b816101f7565b92915050565b5f60208284031215610236576102356101b2565b5b5f6102438482850161020d565b91505092915050565b5f7fffffffff0000000000000000000000000000000000000000000000000000000082169050919050565b6102808161024c565b82525050565b5f6020820190506102995f830184610277565b92915050565b7f4e487b71000000000000000000000000000000000000000000000000000000005f52602160045260245ffd5b60805160a05160c0516112ce6103115f395f81816101140152818161024001526104ea01525f818160ef015261016e01525f818161021c015261026401526112ce5ff3fe608060405234801561000f575f80fd5b5060043610610055575f3560e01c806308c84e70146100595780633fd66f22146100775780634bc8e31c146100955780639a44ea84146100b1578063f4cbae94146100cf575b5f80fd5b6100616100ed565b60405161006e91906106fd565b60405180910390f35b61007f610111565b60405161008c9190610736565b60405180910390f35b6100af60048036038101906100aa9190610842565b610138565b005b6100b961021a565b6040516100c6919061091d565b60405180910390f35b6100d761023e565b6040516100e49190610736565b60405180910390f35b7f000000000000000000000000000000000000000000000000000000000000000081565b5f7f0000000000000000000000000000000000000000000000000000000000000000905090565b6101518480360381019061014c9190610c1f565b610262565b61016c848036038101906101659190610c1f565b83836102f6565b7f000000000000000000000000000000000000000000000000000000000000000073ffffffffffffffffffffffffffffffffffffffff1663ab750e756101c3865f018036038101906101be9190610c4b565b6105c8565b866101400135866040518463ffffffff1660e01b81526004016101e893929190610ce6565b5f6040518083038186803b1580156101fe575f80fd5b505afa158015610210573d5f803e3d5ffd5b5050505050505050565b7f000000000000000000000000000000000000000000000000000000000000000081565b7f000000000000000000000000000000000000000000000000000000000000000081565b7f00000000000000000000000000000000000000000000000000000000000000006001811115610295576102946108aa565b5b6102a1825f0151610676565b60018111156102b3576102b26108aa565b5b146102f3576040517f08c379a00000000000000000000000000000000000000000000000000000000081526004016102ea90610d7c565b60405180910390fd5b50565b8173ffffffffffffffffffffffffffffffffffffffff1683606001515f015173ffffffffffffffffffffffffffffffffffffffff161461036b576040517f08c379a000000000000000000000000000000000000000000000000000000000815260040161036290610de4565b60405180910390fd5b807bffffffffffffffffffffffffffffffffffffffffffffffffffffffff19168360600151602001517bffffffffffffffffffffffffffffffffffffffffffffffffffffffff1916146103f3576040517f08c379a00000000000000000000000000000000000000000000000000000000081526004016103ea90610e4c565b60405180910390fd5b438360600151604001511061043d576040517f08c379a000000000000000000000000000000000000000000000000000000000815260040161043490610eda565b60405180910390fd5b436101008460600151604001516104549190610f25565b1015610495576040517f08c379a000000000000000000000000000000000000000000000000000000000815260040161048c90610fc8565b60405180910390fd5b82606001516040015140836060015160600151146104e8576040517f08c379a00000000000000000000000000000000000000000000000000000000081526004016104df90611030565b60405180910390fd5b7f000000000000000000000000000000000000000000000000000000000000000073ffffffffffffffffffffffffffffffffffffffff16631af6c43184602001516040518263ffffffff1660e01b8152600401610545919061104e565b602060405180830381865afa158015610560573d5f803e3d5ffd5b505050506040513d601f19601f82011682018060405250810190610584919061109c565b6105c3576040517f08c379a00000000000000000000000000000000000000000000000000000000081526004016105ba90611111565b60405180910390fd5b505050565b60606001808111156105dd576105dc6108aa565b5b826040015160018111156105f4576105f36108aa565b5b03610645575f82602001515f600881106106115761061061112f565b5b60200201519050825f01518160405160200161062e92919061119c565b604051602081830303815290604052915050610671565b815f0151826020015160405160200161065f92919061126c565b60405160208183030381529060405290505b919050565b5f81604001519050919050565b5f73ffffffffffffffffffffffffffffffffffffffff82169050919050565b5f819050919050565b5f6106c56106c06106bb84610683565b6106a2565b610683565b9050919050565b5f6106d6826106ab565b9050919050565b5f6106e7826106cc565b9050919050565b6106f7816106dd565b82525050565b5f6020820190506107105f8301846106ee565b92915050565b5f610720826106cc565b9050919050565b61073081610716565b82525050565b5f6020820190506107495f830184610727565b92915050565b5f604051905090565b5f80fd5b5f80fd5b5f61020082840312156107765761077561075c565b5b81905092915050565b5f819050919050565b6107918161077f565b811461079b575f80fd5b50565b5f813590506107ac81610788565b92915050565b5f6107bc82610683565b9050919050565b6107cc816107b2565b81146107d6575f80fd5b50565b5f813590506107e7816107c3565b92915050565b5f7fffffffff0000000000000000000000000000000000000000000000000000000082169050919050565b610821816107ed565b811461082b575f80fd5b50565b5f8135905061083c81610818565b92915050565b5f805f80610260858703121561085b5761085a610758565b5b5f61086887828801610760565b94505061020061087a8782880161079e565b93505061022061088c878288016107d9565b92505061024061089e8782880161082e565b91505092959194509250565b7f4e487b71000000000000000000000000000000000000000000000000000000005f52602160045260245ffd5b600281106108e8576108e76108aa565b5b50565b5f8190506108f8826108d7565b919050565b5f610907826108eb565b9050919050565b610917816108fd565b82525050565b5f6020820190506109305f83018461090e565b92915050565b5f80fd5b5f601f19601f8301169050919050565b7f4e487b71000000000000000000000000000000000000000000000000000000005f52604160045260245ffd5b6109808261093a565b810181811067ffffffffffffffff8211171561099f5761099e61094a565b5b80604052505050565b5f6109b161074f565b90506109bd8282610977565b919050565b5f80fd5b5f67ffffffffffffffff8211156109e0576109df61094a565b5b602082029050919050565b5f80fd5b5f610a016109fc846109c6565b6109a8565b90508060208402830185811115610a1b57610a1a6109eb565b5b835b81811015610a445780610a30888261079e565b845260208401935050602081019050610a1d565b5050509392505050565b5f82601f830112610a6257610a616109c2565b5b6008610a6f8482856109ef565b91505092915050565b60028110610a84575f80fd5b50565b5f81359050610a9581610a78565b92915050565b5f6101408284031215610ab157610ab0610936565b5b610abb60606109a8565b90505f610aca8482850161082e565b5f830152506020610add84828501610a4e565b602083015250610120610af284828501610a87565b60408301525092915050565b5f819050919050565b610b1081610afe565b8114610b1a575f80fd5b50565b5f81359050610b2b81610b07565b92915050565b5f60808284031215610b4657610b45610936565b5b610b5060806109a8565b90505f610b5f848285016107d9565b5f830152506020610b728482850161082e565b6020830152506040610b8684828501610b1d565b6040830152506060610b9a8482850161079e565b60608301525092915050565b5f6102008284031215610bbc57610bbb610936565b5b610bc660806109a8565b90505f610bd584828501610a9b565b5f83015250610140610be98482850161079e565b602083015250610160610bfe84828501610b1d565b604083015250610180610c1384828501610b31565b60608301525092915050565b5f6102008284031215610c3557610c34610758565b5b5f610c4284828501610ba6565b91505092915050565b5f6101408284031215610c6157610c60610758565b5b5f610c6e84828501610a9b565b91505092915050565b5f81519050919050565b5f82825260208201905092915050565b8281835e5f83830152505050565b5f610ca982610c77565b610cb38185610c81565b9350610cc3818560208601610c91565b610ccc8161093a565b840191505092915050565b610ce08161077f565b82525050565b5f6060820190508181035f830152610cfe8186610c9f565b9050610d0d6020830185610cd7565b610d1a6040830184610cd7565b949350505050565b5f82825260208201905092915050565b7f496e76616c69642070726f6f66206d6f646500000000000000000000000000005f82015250565b5f610d66601283610d22565b9150610d7182610d32565b602082019050919050565b5f6020820190508181035f830152610d9381610d5a565b9050919050565b7f496e76616c69642070726f7665720000000000000000000000000000000000005f82015250565b5f610dce600e83610d22565b9150610dd982610d9a565b602082019050919050565b5f6020820190508181035f830152610dfb81610dc2565b9050919050565b7f496e76616c69642073656c6563746f72000000000000000000000000000000005f82015250565b5f610e36601083610d22565b9150610e4182610e02565b602082019050919050565b5f6020820190508181035f830152610e6381610e2a565b9050919050565b7f496e76616c696420626c6f636b206e756d6265723a20626c6f636b2066726f6d5f8201527f2066757475726500000000000000000000000000000000000000000000000000602082015250565b5f610ec4602783610d22565b9150610ecf82610e6a565b604082019050919050565b5f6020820190508181035f830152610ef181610eb8565b9050919050565b7f4e487b71000000000000000000000000000000000000000000000000000000005f52601160045260245ffd5b5f610f2f82610afe565b9150610f3a83610afe565b9250828201905080821115610f5257610f51610ef8565b5b92915050565b7f496e76616c696420626c6f636b206e756d6265723a20626c6f636b20746f6f205f8201527f6f6c640000000000000000000000000000000000000000000000000000000000602082015250565b5f610fb2602383610d22565b9150610fbd82610f58565b604082019050919050565b5f6020820190508181035f830152610fdf81610fa6565b9050919050565b7f496e76616c696420626c6f636b206861736800000000000000000000000000005f82015250565b5f61101a601283610d22565b915061102582610fe6565b602082019050919050565b5f6020820190508181035f8301526110478161100e565b9050919050565b5f6020820190506110615f830184610cd7565b92915050565b5f8115159050919050565b61107b81611067565b8114611085575f80fd5b50565b5f8151905061109681611072565b92915050565b5f602082840312156110b1576110b0610758565b5b5f6110be84828501611088565b91505092915050565b7f556e737570706f727465642043616c6c477565737449640000000000000000005f82015250565b5f6110fb601783610d22565b9150611106826110c7565b602082019050919050565b5f6020820190508181035f830152611128816110ef565b9050919050565b7f4e487b71000000000000000000000000000000000000000000000000000000005f52603260045260245ffd5b5f819050919050565b611176611171826107ed565b61115c565b82525050565b5f819050919050565b6111966111918261077f565b61117c565b82525050565b5f6111a78285611165565b6004820191506111b78284611185565b6020820191508190509392505050565b5f60089050919050565b5f81905092915050565b5f819050919050565b6111ed8161077f565b82525050565b5f6111fe83836111e4565b60208301905092915050565b5f602082019050919050565b61121f816111c7565b61122981846111d1565b9250611234826111db565b805f5b8381101561126457815161124b87826111f3565b96506112568361120a565b925050600181019050611237565b505050505050565b5f6112778285611165565b6004820191506112878284611216565b61010082019150819050939250505056fea264697066735822122057d04fcdc0abba82212caf42a4e1e565bfa47b10bf025954f9a540e392bfb74a64736f6c634300081a003360a060405234801561000f575f80fd5b5060405161100a38038061100a833981810160405281019061003191906100d6565b807bffffffffffffffffffffffffffffffffffffffffffffffffffffffff19166080817bffffffffffffffffffffffffffffffffffffffffffffffffffffffff19168152505050610101565b5f80fd5b5f7fffffffff0000000000000000000000000000000000000000000000000000000082169050919050565b6100b581610081565b81146100bf575f80fd5b50565b5f815190506100d0816100ac565b92915050565b5f602082840312156100eb576100ea61007d565b5b5f6100f8848285016100c2565b91505092915050565b608051610edc61012e5f395f8181610111015281816101670152818161024201526102a50152610edc5ff3fe608060405234801561000f575f80fd5b5060043610610055575f3560e01c8063053c238d146100595780631599ead5146100775780633a115bb11461009357806366cf0e4b146100c3578063ab750e75146100f3575b5f80fd5b61006161010f565b60405161006e91906106e1565b60405180910390f35b610091600480360381019061008c9190610724565b610133565b005b6100ad60048036038101906100a8919061079e565b610152565b6040516100ba9190610882565b60405180910390f35b6100dd60048036038101906100d891906108a2565b6101b7565b6040516100ea9190610882565b60405180910390f35b61010d60048036038101906101089190610941565b6101e1565b005b7f000000000000000000000000000000000000000000000000000000000000000081565b61014f81805f019061014591906109be565b8360200135610203565b50565b61015a610621565b60405180604001604052807f000000000000000000000000000000000000000000000000000000000000000084604051602001610198929190610a60565b6040516020818303038152906040528152602001838152509050919050565b6101bf610621565b6101d96101d46101cf858561038d565b61042f565b610152565b905092915050565b6101fd84846101f86101f3868661038d565b61042f565b610203565b50505050565b82825f9060049261021693929190610a93565b906102219190610ae3565b7bffffffffffffffffffffffffffffffffffffffffffffffffffffffff19167f00000000000000000000000000000000000000000000000000000000000000007bffffffffffffffffffffffffffffffffffffffffffffffffffffffff1916146103015782825f9060049261029893929190610a93565b906102a39190610ae3565b7f00000000000000000000000000000000000000000000000000000000000000006040517fb8b38d4c0000000000000000000000000000000000000000000000000000000081526004016102f8929190610b41565b60405180910390fd5b806040516020016103129190610b68565b604051602081830303815290604052805190602001208383600490809261033b93929190610a93565b604051610349929190610bbe565b604051809103902014610388576040517f439cc0cd00000000000000000000000000000000000000000000000000000000815260040160405180910390fd5b505050565b61039561063d565b6040518060a001604052808481526020017fa3acc27117418996340b84e5a90f3ef4c49d22c79e44aad822ec9c313e1eb8e25f1b815260200160405180604001604052805f60028111156103ec576103eb610bd6565b5b81526020015f60ff1681525081526020015f801b815260200161042460405180604001604052808681526020015f801b81525061054c565b815250905092915050565b5f60028060405161043f90610c4d565b602060405180830381855afa15801561045a573d5f803e3d5ffd5b5050506040513d601f19601f8201168201806040525081019061047d9190610c75565b8360600151845f015185602001518660800151601888604001515f015160028111156104ac576104ab610bd6565b5b63ffffffff16901b601889604001516020015160ff1663ffffffff16901b6008600461ffff16901b6040516020016104eb989796959493929190610d24565b6040516020818303038152906040526040516105079190610de5565b602060405180830381855afa158015610522573d5f803e3d5ffd5b5050506040513d601f19601f820116820180604052508101906105459190610c75565b9050919050565b5f60028060405161055c90610e45565b602060405180830381855afa158015610577573d5f803e3d5ffd5b5050506040513d601f19601f8201168201806040525081019061059a9190610c75565b835f015184602001516008600261ffff16901b6040516020016105c09493929190610e59565b6040516020818303038152906040526040516105dc9190610de5565b602060405180830381855afa1580156105f7573d5f803e3d5ffd5b5050506040513d601f19601f8201168201806040525081019061061a9190610c75565b9050919050565b6040518060400160405280606081526020015f80191681525090565b6040518060a001604052805f80191681526020015f801916815260200161066261067a565b81526020015f80191681526020015f80191681525090565b60405180604001604052805f600281111561069857610697610bd6565b5b81526020015f60ff1681525090565b5f7fffffffff0000000000000000000000000000000000000000000000000000000082169050919050565b6106db816106a7565b82525050565b5f6020820190506106f45f8301846106d2565b92915050565b5f80fd5b5f80fd5b5f80fd5b5f6040828403121561071b5761071a610702565b5b81905092915050565b5f60208284031215610739576107386106fa565b5b5f82013567ffffffffffffffff811115610756576107556106fe565b5b61076284828501610706565b91505092915050565b5f819050919050565b61077d8161076b565b8114610787575f80fd5b50565b5f8135905061079881610774565b92915050565b5f602082840312156107b3576107b26106fa565b5b5f6107c08482850161078a565b91505092915050565b5f81519050919050565b5f82825260208201905092915050565b8281835e5f83830152505050565b5f601f19601f8301169050919050565b5f61080b826107c9565b61081581856107d3565b93506108258185602086016107e3565b61082e816107f1565b840191505092915050565b6108428161076b565b82525050565b5f604083015f8301518482035f8601526108628282610801565b91505060208301516108776020860182610839565b508091505092915050565b5f6020820190508181035f83015261089a8184610848565b905092915050565b5f80604083850312156108b8576108b76106fa565b5b5f6108c58582860161078a565b92505060206108d68582860161078a565b9150509250929050565b5f80fd5b5f80fd5b5f80fd5b5f8083601f840112610901576109006108e0565b5b8235905067ffffffffffffffff81111561091e5761091d6108e4565b5b60208301915083600182028301111561093a576109396108e8565b5b9250929050565b5f805f8060608587031215610959576109586106fa565b5b5f85013567ffffffffffffffff811115610976576109756106fe565b5b610982878288016108ec565b945094505060206109958782880161078a565b92505060406109a68782880161078a565b91505092959194509250565b5f80fd5b5f80fd5b5f80fd5b5f80833560016020038436030381126109da576109d96109b2565b5b80840192508235915067ffffffffffffffff8211156109fc576109fb6109b6565b5b602083019250600182023603831315610a1857610a176109ba565b5b509250929050565b5f819050919050565b610a3a610a35826106a7565b610a20565b82525050565b5f819050919050565b610a5a610a558261076b565b610a40565b82525050565b5f610a6b8285610a29565b600482019150610a7b8284610a49565b6020820191508190509392505050565b5f80fd5b5f80fd5b5f8085851115610aa657610aa5610a8b565b5b83861115610ab757610ab6610a8f565b5b6001850283019150848603905094509492505050565b5f82905092915050565b5f82821b905092915050565b5f610aee8383610acd565b82610af981356106a7565b92506004821015610b3957610b347fffffffff0000000000000000000000000000000000000000000000000000000083600403600802610ad7565b831692505b505092915050565b5f604082019050610b545f8301856106d2565b610b6160208301846106d2565b9392505050565b5f610b738284610a49565b60208201915081905092915050565b5f81905092915050565b828183375f83830152505050565b5f610ba58385610b82565b9350610bb2838584610b8c565b82840190509392505050565b5f610bca828486610b9a565b91508190509392505050565b7f4e487b71000000000000000000000000000000000000000000000000000000005f52602160045260245ffd5b7f72697363302e52656365697074436c61696d00000000000000000000000000005f82015250565b5f610c37601283610b82565b9150610c4282610c03565b601282019050919050565b5f610c5782610c2b565b9150819050919050565b5f81519050610c6f81610774565b92915050565b5f60208284031215610c8a57610c896106fa565b5b5f610c9784828501610c61565b91505092915050565b5f63ffffffff82169050919050565b5f8160e01b9050919050565b5f610cc582610caf565b9050919050565b610cdd610cd882610ca0565b610cbb565b82525050565b5f61ffff82169050919050565b5f8160f01b9050919050565b5f610d0682610cf0565b9050919050565b610d1e610d1982610ce3565b610cfc565b82525050565b5f610d2f828b610a49565b602082019150610d3f828a610a49565b602082019150610d4f8289610a49565b602082019150610d5f8288610a49565b602082019150610d6f8287610a49565b602082019150610d7f8286610ccc565b600482019150610d8f8285610ccc565b600482019150610d9f8284610d0d565b6002820191508190509998505050505050505050565b5f610dbf826107c9565b610dc98185610b82565b9350610dd98185602086016107e3565b80840191505092915050565b5f610df08284610db5565b915081905092915050565b7f72697363302e4f757470757400000000000000000000000000000000000000005f82015250565b5f610e2f600c83610b82565b9150610e3a82610dfb565b600c82019050919050565b5f610e4f82610e23565b9150819050919050565b5f610e648287610a49565b602082019150610e748286610a49565b602082019150610e848285610a49565b602082019150610e948284610d0d565b6002820191508190509594505050505056fea2646970667358221220695f0749e234df721b1a690fdd3ebe2ff7b06ebfa038eaf49028f2e6d46d34e764736f6c634300081a0033","linkReferences":{}},"methodIdentifiers":{"_setTestVerifier(address)":"9b8b30c8","approved(string)":"fa322eb2","prover()":"32a8f30f","verifier()":"2b7ac3f3","verify(((bytes4,bytes32[8],uint8),bytes32,uint256,(address,bytes4,uint256,bytes32)),string,string)":"9b819627","verifyT(string,string)":"5006f66a"},"id":41}