{"abi":[{"type":"function","name":"main","inputs":[{"name":"webProof","type":"tuple","internalType":"struct WebProof","components":[{"name":"webProofJson","type":"string","internalType":"string"}]},{"name":"hashedPass","type":"string","internalType":"string"}],"outputs":[{"name":"","type":"tuple","internalType":"struct Proof","components":[{"name":"seal","type":"tuple","internalType":"struct Seal","components":[{"name":"verifierSelector","type":"bytes4","internalType":"bytes4"},{"name":"seal","type":"bytes32[8]","internalType":"bytes32[8]"},{"name":"mode","type":"uint8","internalType":"enum ProofMode"}]},{"name":"callGuestId","type":"bytes32","internalType":"bytes32"},{"name":"length","type":"uint256","internalType":"uint256"},{"name":"callAssumptions","type":"tuple","internalType":"struct CallAssumptions","components":[{"name":"proverContractAddress","type":"address","internalType":"address"},{"name":"functionSelector","type":"bytes4","internalType":"bytes4"},{"name":"settleBlockNumber","type":"uint256","internalType":"uint256"},{"name":"settleBlockHash","type":"bytes32","internalType":"bytes32"}]}]},{"name":"","type":"string","internalType":"string"},{"name":"","type":"string","internalType":"string"}],"stateMutability":"view"},{"type":"function","name":"proof","inputs":[],"outputs":[{"name":"","type":"tuple","internalType":"struct Proof","components":[{"name":"seal","type":"tuple","internalType":"struct Seal","components":[{"name":"verifierSelector","type":"bytes4","internalType":"bytes4"},{"name":"seal","type":"bytes32[8]","internalType":"bytes32[8]"},{"name":"mode","type":"uint8","internalType":"enum ProofMode"}]},{"name":"callGuestId","type":"bytes32","internalType":"bytes32"},{"name":"length","type":"uint256","internalType":"uint256"},{"name":"callAssumptions","type":"tuple","internalType":"struct CallAssumptions","components":[{"name":"proverContractAddress","type":"address","internalType":"address"},{"name":"functionSelector","type":"bytes4","internalType":"bytes4"},{"name":"settleBlockNumber","type":"uint256","internalType":"uint256"},{"name":"settleBlockHash","type":"bytes32","internalType":"bytes32"}]}]}],"stateMutability":"pure"},{"type":"function","name":"setBlock","inputs":[{"name":"blockNo","type":"uint256","internalType":"uint256"}],"outputs":[],"stateMutability":"nonpayable"},{"type":"function","name":"setChain","inputs":[{"name":"chainId","type":"uint256","internalType":"uint256"},{"name":"blockNo","type":"uint256","internalType":"uint256"}],"outputs":[],"stateMutability":"nonpayable"},{"type":"error","name":"FailedInnerCall","inputs":[]}],"bytecode":{"object":"0x6080604052348015600e575f80fd5b506117d78061001c5f395ff3fe608060405234801561000f575f80fd5b506004361061004a575f3560e01c806387cea3ae1461004e578063a09d0df31461006a578063faf924cf1461009c578063ffbc5638146100ba575b5f80fd5b61006860048036038101906100639190610aec565b6100d6565b005b610084600480360381019061007f9190610c75565b6101b3565b60405161009393929190610fe0565b60405180910390f35b6100a4610259565b6040516100b19190611026565b60405180910390f35b6100d460048036038101906100cf9190611040565b61026e565b005b7f2ae215ce9fde588adfdea92976dc9aa45aa006a0f63942d8f9f21bd4537972a35f1c73ffffffffffffffffffffffffffffffffffffffff166387cea3ae826040518263ffffffff1660e01b8152600401610131919061108d565b6020604051808303815f875af115801561014d573d5f803e3d5ffd5b505050506040513d601f19601f8201168201806040525081019061017191906110db565b6101b0576040517f08c379a00000000000000000000000000000000000000000000000000000000081526004016101a790611150565b60405180910390fd5b50565b6101bb61097d565b6060805f6101f36040518060600160405280602d8152602001611775602d9139876101e5906111cb565b61034e90919063ffffffff16565b90505f61023e6040518060400160405280601a81526020017f63686f696365735b305d2e6d6573736167652e636f6e74656e740000000000008152508361051490919063ffffffff16565b9050610248610259565b818794509450945050509250925092565b61026161097d565b61026961062b565b905090565b7f2ae215ce9fde588adfdea92976dc9aa45aa006a0f63942d8f9f21bd4537972a35f1c73ffffffffffffffffffffffffffffffffffffffff1663ffbc563883836040518363ffffffff1660e01b81526004016102cb9291906111dd565b6020604051808303815f875af11580156102e7573d5f803e3d5ffd5b505050506040513d601f19601f8201168201806040525081019061030b91906110db565b61034a576040517f08c379a000000000000000000000000000000000000000000000000000000000815260040161034190611150565b60405180910390fd5b5050565b6103566109b2565b5f61036084610642565b905061036a610746565b8061037957506103786107a2565b5b1561044557610386610806565b73ffffffffffffffffffffffffffffffffffffffff16632505a3bd82602001516040518263ffffffff1660e01b81526004016103c29190611204565b602060405180830381865afa1580156103dd573d5f803e3d5ffd5b505050506040513d601f19601f8201168201806040525081019061040191906110db565b610440576040517f08c379a00000000000000000000000000000000000000000000000000000000081526004016104379061126e565b60405180910390fd5b6104b4565b61047481602001516040518060e0016040528060ae81526020016116c760ae913961082190919063ffffffff16565b6104b3576040517f08c379a00000000000000000000000000000000000000000000000000000000081526004016104aa9061126e565b60405180910390fd5b5b6104cb83826040015161084890919063ffffffff16565b61050a576040517f08c379a0000000000000000000000000000000000000000000000000000000008152600401610501906112d6565b60405180910390fd5b8091505092915050565b60605f835f0151511161055c576040517f08c379a00000000000000000000000000000000000000000000000000000000081526004016105539061133e565b60405180910390fd5b5f6040518060400160405280855f01518152602001848152506040516020016105859190611453565b60405160208183030381529060405290505f8061010273ffffffffffffffffffffffffffffffffffffffff16836040516105bf91906114b7565b5f60405180830381855afa9150503d805f81146105f7576040519150601f19603f3d011682016040523d82523d5f602084013e6105fc565b606091505b509150915061060b8282610915565b5080806020019051810190610620919061153b565b935050505092915050565b61063361097d565b61063b61097d565b8091505090565b61064a6109b2565b5f8061010073ffffffffffffffffffffffffffffffffffffffff16845f015160405161067691906114b7565b5f60405180830381855afa9150503d805f81146106ae576040519150601f19603f3d011682016040523d82523d5f602084013e6106b3565b606091505b50915091506106c28282610915565b505f818060200190518101906106d89190611652565b90506040518060600160405280826002600481106106f9576106f8611699565b5b602002015181526020018260036004811061071757610716611699565b5b60200201518152602001825f6004811061073457610733611699565b5b60200201518152509350505050919050565b5f60014614806107565750600a46145b806107615750608946145b8061076d575061014446145b8061077957506101e046145b80610785575061a4b146145b80610791575061a4ba46145b8061079d575061e70846145b905090565b5f62aa36a74614806107b5575061012c46145b806107c157506112c146145b806107cd575061e70546145b806107da57506201388246145b806107e7575062014a3446145b806107f4575062066eee46145b80610801575062aa37dc46145b905090565b5f73c9708b07ae9906b92ff19281fd660fb19206a8fa905090565b5f81518351148015610840575081805190602001208380519060200120145b905092915050565b5f805f61012073ffffffffffffffffffffffffffffffffffffffff166040518060400160405280878152602001868152506040516020016108899190611453565b6040516020818303038152906040526040516108a591906114b7565b5f60405180830381855afa9150503d805f81146108dd576040519150601f19603f3d011682016040523d82523d5f602084013e6108e2565b606091505b50915091506108f18282610915565b505f8180602001905181019061090791906110db565b905080935050505092915050565b60608261092a5761092582610939565b610932565b819050610933565b5b92915050565b5f8151111561094b5780518082602001fd5b6040517f1425ea4200000000000000000000000000000000000000000000000000000000815260040160405180910390fd5b60405180608001604052806109906109d3565b81526020015f80191681526020015f81526020016109ac610a29565b81525090565b60405180606001604052806060815260200160608152602001606081525090565b60405180606001604052805f7bffffffffffffffffffffffffffffffffffffffffffffffffffffffff19168152602001610a0b610a85565b81526020015f6001811115610a2357610a22610dd3565b5b81525090565b60405180608001604052805f73ffffffffffffffffffffffffffffffffffffffff1681526020015f7bffffffffffffffffffffffffffffffffffffffffffffffffffffffff191681526020015f81526020015f80191681525090565b604051806101000160405280600890602082028036833780820191505090505090565b5f604051905090565b5f80fd5b5f80fd5b5f819050919050565b610acb81610ab9565b8114610ad5575f80fd5b50565b5f81359050610ae681610ac2565b92915050565b5f60208284031215610b0157610b00610ab1565b5b5f610b0e84828501610ad8565b91505092915050565b5f80fd5b5f60208284031215610b3057610b2f610b17565b5b81905092915050565b5f80fd5b5f80fd5b5f601f19601f8301169050919050565b7f4e487b71000000000000000000000000000000000000000000000000000000005f52604160045260245ffd5b610b8782610b41565b810181811067ffffffffffffffff82111715610ba657610ba5610b51565b5b80604052505050565b5f610bb8610aa8565b9050610bc48282610b7e565b919050565b5f67ffffffffffffffff821115610be357610be2610b51565b5b610bec82610b41565b9050602081019050919050565b828183375f83830152505050565b5f610c19610c1484610bc9565b610baf565b905082815260208101848484011115610c3557610c34610b3d565b5b610c40848285610bf9565b509392505050565b5f82601f830112610c5c57610c5b610b39565b5b8135610c6c848260208601610c07565b91505092915050565b5f8060408385031215610c8b57610c8a610ab1565b5b5f83013567ffffffffffffffff811115610ca857610ca7610ab5565b5b610cb485828601610b1b565b925050602083013567ffffffffffffffff811115610cd557610cd4610ab5565b5b610ce185828601610c48565b9150509250929050565b5f7fffffffff0000000000000000000000000000000000000000000000000000000082169050919050565b610d1f81610ceb565b82525050565b5f60089050919050565b5f81905092915050565b5f819050919050565b5f819050919050565b610d5481610d42565b82525050565b5f610d658383610d4b565b60208301905092915050565b5f602082019050919050565b610d8681610d25565b610d908184610d2f565b9250610d9b82610d39565b805f5b83811015610dcb578151610db28782610d5a565b9650610dbd83610d71565b925050600181019050610d9e565b505050505050565b7f4e487b71000000000000000000000000000000000000000000000000000000005f52602160045260245ffd5b60028110610e1157610e10610dd3565b5b50565b5f819050610e2182610e00565b919050565b5f610e3082610e14565b9050919050565b610e4081610e26565b82525050565b61014082015f820151610e5b5f850182610d16565b506020820151610e6e6020850182610d7d565b506040820151610e82610120850182610e37565b50505050565b610e9181610ab9565b82525050565b5f73ffffffffffffffffffffffffffffffffffffffff82169050919050565b5f610ec082610e97565b9050919050565b610ed081610eb6565b82525050565b608082015f820151610eea5f850182610ec7565b506020820151610efd6020850182610d16565b506040820151610f106040850182610e88565b506060820151610f236060850182610d4b565b50505050565b61020082015f820151610f3e5f850182610e46565b506020820151610f52610140850182610d4b565b506040820151610f66610160850182610e88565b506060820151610f7a610180850182610ed6565b50505050565b5f81519050919050565b5f82825260208201905092915050565b8281835e5f83830152505050565b5f610fb282610f80565b610fbc8185610f8a565b9350610fcc818560208601610f9a565b610fd581610b41565b840191505092915050565b5f61024082019050610ff45f830186610f29565b8181036102008301526110078185610fa8565b905081810361022083015261101c8184610fa8565b9050949350505050565b5f6102008201905061103a5f830184610f29565b92915050565b5f806040838503121561105657611055610ab1565b5b5f61106385828601610ad8565b925050602061107485828601610ad8565b9150509250929050565b61108781610ab9565b82525050565b5f6020820190506110a05f83018461107e565b92915050565b5f8115159050919050565b6110ba816110a6565b81146110c4575f80fd5b50565b5f815190506110d5816110b1565b92915050565b5f602082840312156110f0576110ef610ab1565b5b5f6110fd848285016110c7565b91505092915050565b7f4661696c6564206368656174636f646520696e766f636174696f6e00000000005f82015250565b5f61113a601b83610f8a565b915061114582611106565b602082019050919050565b5f6020820190508181035f8301526111678161112e565b9050919050565b5f80fd5b5f80fd5b5f6020828403121561118b5761118a61116e565b5b6111956020610baf565b90505f82013567ffffffffffffffff8111156111b4576111b3611172565b5b6111c084828501610c48565b5f8301525092915050565b5f6111d63683611176565b9050919050565b5f6040820190506111f05f83018561107e565b6111fd602083018461107e565b9392505050565b5f6020820190508181035f83015261121c8184610fa8565b905092915050565b7f496e76616c6964206e6f74617279207075626c6963206b6579000000000000005f82015250565b5f611258601983610f8a565b915061126382611224565b602082019050919050565b5f6020820190508181035f8301526112858161124c565b9050919050565b7f496e636f72726563742055524c000000000000000000000000000000000000005f82015250565b5f6112c0600d83610f8a565b91506112cb8261128c565b602082019050919050565b5f6020820190508181035f8301526112ed816112b4565b9050919050565b7f426f647920697320656d707479000000000000000000000000000000000000005f82015250565b5f611328600d83610f8a565b9150611333826112f4565b602082019050919050565b5f6020820190508181035f8301526113558161131c565b9050919050565b5f60029050919050565b5f81905092915050565b5f819050919050565b5f82825260208201905092915050565b5f61139382610f80565b61139d8185611379565b93506113ad818560208601610f9a565b6113b681610b41565b840191505092915050565b5f6113cc8383611389565b905092915050565b5f602082019050919050565b5f6113ea8261135c565b6113f48185611366565b93508360208202850161140685611370565b805f5b85811015611441578484038952815161142285826113c1565b945061142d836113d4565b925060208a01995050600181019050611409565b50829750879550505050505092915050565b5f6020820190508181035f83015261146b81846113e0565b905092915050565b5f81519050919050565b5f81905092915050565b5f61149182611473565b61149b818561147d565b93506114ab818560208601610f9a565b80840191505092915050565b5f6114c28284611487565b915081905092915050565b5f6114df6114da84610bc9565b610baf565b9050828152602081018484840111156114fb576114fa610b3d565b5b611506848285610f9a565b509392505050565b5f82601f83011261152257611521610b39565b5b81516115328482602086016114cd565b91505092915050565b5f602082840312156115505761154f610ab1565b5b5f82015167ffffffffffffffff81111561156d5761156c610ab5565b5b6115798482850161150e565b91505092915050565b5f67ffffffffffffffff82111561159c5761159b610b51565b5b602082029050919050565b5f80fd5b5f6115bd6115b884611582565b610baf565b905080602084028301858111156115d7576115d66115a7565b5b835b8181101561161e57805167ffffffffffffffff8111156115fc576115fb610b39565b5b808601611609898261150e565b855260208501945050506020810190506115d9565b5050509392505050565b5f82601f83011261163c5761163b610b39565b5b60046116498482856115ab565b91505092915050565b5f6020828403121561166757611666610ab1565b5b5f82015167ffffffffffffffff81111561168457611683610ab5565b5b61169084828501611628565b91505092915050565b7f4e487b71000000000000000000000000000000000000000000000000000000005f52603260045260245ffdfe2d2d2d2d2d424547494e205055424c4943204b45592d2d2d2d2d0a4d465977454159484b6f5a497a6a3043415159464b34454541416f445167414565306a786e424f6261496a37586a673654584c434d3147472f566859353635300a4f72532f6a6763624275666f2f51446646764c2f69727a4976314a536d684769566373434843776f6c684458576367653776324973513d3d0a2d2d2d2d2d454e44205055424c4943204b45592d2d2d2d2d0a68747470733a2f2f6f70656e726f757465722e61692f6170692f76312f636861742f636f6d706c6574696f6e73a26469706673582212203f567f87e1eb849209ee179f62568ae02ce695388b7971e3610cff176d53cbb164736f6c634300081a0033","linkReferences":{}},"methodIdentifiers":{"main((string),string)":"a09d0df3","proof()":"faf924cf","setBlock(uint256)":"87cea3ae","setChain(uint256,uint256)":"ffbc5638"},"id":40}